{
  "_format": "hh-sol-artifact-1",
  "contractName": "MigrantID",
  "sourceName": "contracts/MigrantID.sol",
  "abi": [
    {
      "anonymous": false,
      "inputs": [
        {
          "indexed": true,
          "internalType": "address",
          "name": "user",
          "type": "address"
        },
        {
          "indexed": false,
          "internalType": "string",
          "name": "name",
          "type": "string"
        },
        {
          "indexed": false,
          "internalType": "string",
          "name": "ipfsHash",
          "type": "string"
        }
      ],
      "name": "IdentityCreated",
      "type": "event"
    },
    {
      "inputs": [
        {
          "internalType": "string",
          "name": "_name",
          "type": "string"
        },
        {
          "internalType": "string",
          "name": "_ipfsHash",
          "type": "string"
        }
      ],
      "name": "createIdentity",
      "outputs": [],
      "stateMutability": "nonpayable",
      "type": "function"
    },
    {
      "inputs": [
        {
          "internalType": "address",
          "name": "user",
          "type": "address"
        }
      ],
      "name": "getIdentity",
      "outputs": [
        {
          "internalType": "string",
          "name": "name",
          "type": "string"
        },
        {
          "internalType": "string",
          "name": "ipfsHash",
          "type": "string"
        }
      ],
      "stateMutability": "view",
      "type": "function"
    },
    {
      "inputs": [
        {
          "internalType": "address",
          "name": "",
          "type": "address"
        }
      ],
      "name": "identities",
      "outputs": [
        {
          "internalType": "string",
          "name": "name",
          "type": "string"
        },
        {
          "internalType": "string",
          "name": "ipfsHash",
          "type": "string"
        },
        {
          "internalType": "bool",
          "name": "exists",
          "type": "bool"
        }
      ],
      "stateMutability": "view",
      "type": "function"
    }
  ],
  "bytecode": "0x6080604052348015600f57600080fd5b50610d348061001f6000396000f3fe608060405234801561001057600080fd5b50600436106100415760003560e01c80632fea7b8114610046578063a309e6e114610077578063f653b81e14610093575b600080fd5b610060600480360381019061005b919061063d565b6100c5565b60405161006e9291906106fa565b60405180910390f35b610091600480360381019061008c9190610866565b6102f6565b005b6100ad60048036038101906100a8919061063d565b610484565b6040516100bc939291906108f9565b60405180910390f35b6060806000808473ffffffffffffffffffffffffffffffffffffffff1673ffffffffffffffffffffffffffffffffffffffff16815260200190815260200160002060020160009054906101000a900460ff16610156576040517f08c379a000000000000000000000000000000000000000000000000000000000815260040161014d9061098a565b60405180910390fd5b60008060008573ffffffffffffffffffffffffffffffffffffffff1673ffffffffffffffffffffffffffffffffffffffff1681526020019081526020016000206040518060600160405290816000820180546101b1906109d9565b80601f01602080910402602001604051908101604052809291908181526020018280546101dd906109d9565b801561022a5780601f106101ff5761010080835404028352916020019161022a565b820191906000526020600020905b81548152906001019060200180831161020d57829003601f168201915b50505050508152602001600182018054610243906109d9565b80601f016020809104026020016040519081016040528092919081815260200182805461026f906109d9565b80156102bc5780601f10610291576101008083540402835291602001916102bc565b820191906000526020600020905b81548152906001019060200180831161029f57829003601f168201915b505050505081526020016002820160009054906101000a900460ff1615151515815250509050806000015181602001519250925050915091565b6000803373ffffffffffffffffffffffffffffffffffffffff1673ffffffffffffffffffffffffffffffffffffffff16815260200190815260200160002060020160009054906101000a900460ff1615610385576040517f08c379a000000000000000000000000000000000000000000000000000000000815260040161037c90610a56565b60405180910390fd5b6040518060600160405280838152602001828152602001600115158152506000803373ffffffffffffffffffffffffffffffffffffffff1673ffffffffffffffffffffffffffffffffffffffff16815260200190815260200160002060008201518160000190816103f69190610c2c565b50602082015181600101908161040c9190610c2c565b5060408201518160020160006101000a81548160ff0219169083151502179055509050503373ffffffffffffffffffffffffffffffffffffffff167f6b0c3bc6b3d317d2cf8f07426c82d9decd9530eb7b70cd61cb031c35b0a5353a83836040516104789291906106fa565b60405180910390a25050565b60006020528060005260406000206000915090508060000180546104a7906109d9565b80601f01602080910402602001604051908101604052809291908181526020018280546104d3906109d9565b80156105205780601f106104f557610100808354040283529160200191610520565b820191906000526020600020905b81548152906001019060200180831161050357829003601f168201915b505050505090806001018054610535906109d9565b80601f0160208091040260200160405190810160405280929190818152602001828054610561906109d9565b80156105ae5780601f10610583576101008083540402835291602001916105ae565b820191906000526020600020905b81548152906001019060200180831161059157829003601f168201915b5050505050908060020160009054906101000a900460ff16905083565b6000604051905090565b600080fd5b600080fd5b600073ffffffffffffffffffffffffffffffffffffffff82169050919050565b600061060a826105df565b9050919050565b61061a816105ff565b811461062557600080fd5b50565b60008135905061063781610611565b92915050565b600060208284031215610653576106526105d5565b5b600061066184828501610628565b91505092915050565b600081519050919050565b600082825260208201905092915050565b60005b838110156106a4578082015181840152602081019050610689565b60008484015250505050565b6000601f19601f8301169050919050565b60006106cc8261066a565b6106d68185610675565b93506106e6818560208601610686565b6106ef816106b0565b840191505092915050565b6000604082019050818103600083015261071481856106c1565b9050818103602083015261072881846106c1565b90509392505050565b600080fd5b600080fd5b7f4e487b7100000000000000000000000000000000000000000000000000000000600052604160045260246000fd5b610773826106b0565b810181811067ffffffffffffffff821117156107925761079161073b565b5b80604052505050565b60006107a56105cb565b90506107b1828261076a565b919050565b600067ffffffffffffffff8211156107d1576107d061073b565b5b6107da826106b0565b9050602081019050919050565b82818337600083830152505050565b6000610809610804846107b6565b61079b565b90508281526020810184848401111561082557610824610736565b5b6108308482856107e7565b509392505050565b600082601f83011261084d5761084c610731565b5b813561085d8482602086016107f6565b91505092915050565b6000806040838503121561087d5761087c6105d5565b5b600083013567ffffffffffffffff81111561089b5761089a6105da565b5b6108a785828601610838565b925050602083013567ffffffffffffffff8111156108c8576108c76105da565b5b6108d485828601610838565b9150509250929050565b60008115159050919050565b6108f3816108de565b82525050565b6000606082019050818103600083015261091381866106c1565b9050818103602083015261092781856106c1565b905061093660408301846108ea565b949350505050565b7f4964656e7469747920646f6573206e6f74206578697374000000000000000000600082015250565b6000610974601783610675565b915061097f8261093e565b602082019050919050565b600060208201905081810360008301526109a381610967565b9050919050565b7f4e487b7100000000000000000000000000000000000000000000000000000000600052602260045260246000fd5b600060028204905060018216806109f157607f821691505b602082108103610a0457610a036109aa565b5b50919050565b7f4964656e7469747920616c726561647920657869737473000000000000000000600082015250565b6000610a40601783610675565b9150610a4b82610a0a565b602082019050919050565b60006020820190508181036000830152610a6f81610a33565b9050919050565b60008190508160005260206000209050919050565b60006020601f8301049050919050565b600082821b905092915050565b600060088302610ad87fffffffffffffffffffffffffffffffffffffffffffffffffffffffffffffffff82610a9b565b610ae28683610a9b565b95508019841693508086168417925050509392505050565b6000819050919050565b6000819050919050565b6000610b29610b24610b1f84610afa565b610b04565b610afa565b9050919050565b6000819050919050565b610b4383610b0e565b610b57610b4f82610b30565b848454610aa8565b825550505050565b600090565b610b6c610b5f565b610b77818484610b3a565b505050565b5b81811015610b9b57610b90600082610b64565b600181019050610b7d565b5050565b601f821115610be057610bb181610a76565b610bba84610a8b565b81016020851015610bc9578190505b610bdd610bd585610a8b565b830182610b7c565b50505b505050565b600082821c905092915050565b6000610c0360001984600802610be5565b1980831691505092915050565b6000610c1c8383610bf2565b9150826002028217905092915050565b610c358261066a565b67ffffffffffffffff811115610c4e57610c4d61073b565b5b610c5882546109d9565b610c63828285610b9f565b600060209050601f831160018114610c965760008415610c84578287015190505b610c8e8582610c10565b865550610cf6565b601f198416610ca486610a76565b60005b82811015610ccc57848901518255600182019150602085019450602081019050610ca7565b86831015610ce95784890151610ce5601f891682610bf2565b8355505b6001600288020188555050505b50505050505056fea26469706673582212204bef5e0aef7f2b361be8fbb09417146ee448a2ff8eba6aeb12b8bea1eeab66f264736f6c634300081c0033",
  "linkReferences": {},
  "deployedLinkReferences": {}
}